:100000000C942A000C9447000C9447000C94470071
:100010000C9447000C9447000C9447000C94E72480
:100020000C9447000C94B4240C9447000C944700A3
:100030000C9447000C94CA140C9447000C94FD14C3
:100040000C9447000C9447000C9447000C94470014
:100050000C94470011241FBECFE5D8E0DEBFCDBF12
:1000600012E0A0E6B0E0E6E4F2E502C005900D92F1
:10007000A636B107D9F712E0A6E6B2E001C01D929C
:10008000AA37B107E1F70E94DE130C9421290C94E2
:100090000000EF92FF920F931F937B018C0120E0F1
:1000A00030E040E05FE40E94F50388238CF0C80153
:1000B000B70120E030E040E05FE40E94C1010E940F
:1000C000B3049B01AC01205030404040504806C072
:1000D000C801B7010E94B3049B01AC01B901CA0178
:1000E0001F910F91FF90EF900895A0E0B0E0EBE733
:1000F000F0E00C940426DC012B01FA019C91923073
:1001000008F439C1EB018881823008F433C194309E
:1001100069F4843009F02FC111969C91119789815F
:10012000981709F428C1ADEFB0E025C1843009F477
:1001300021C18230A9F4923009F01DC19A01AD01AC
:1001400088E0EA010990AE01E90109929E0181501F
:10015000C1F7E201898111969C918923818308C1AD
:10016000923009F407C112962D903C901397EB0141
:100170008A819B811496AD90BD90CD90DC901797AD
:10018000EC80FD800E811F819101281B390BB90184
:1001900037FF04C066277727621B730B6032710537
:1001A0000CF061C0121613066CF537014801062EDB
:1001B00004C096948794779467940A94D2F721E0C8
:1001C00030E040E050E004C0220F331F441F551FB1
:1001D0006A95D2F721503040404050402E213F21B7
:1001E00040235123211531054105510521F021E01E
:1001F00030E040E050E079018A01E628F72808293C
:1002000019293CC0232BD1F1260E371E350146019A
:10021000062E04C096948794779467940A94D2F734
:1002200021E030E040E050E004C0220F331F441FC3
:10023000551F6A95D2F721503040404050402A2146
:100240003B214C215D21211531054105510521F04E
:1002500021E030E040E050E059016A01A628B728CB
:10026000C828D9280BC0821593052CF01C01AA249C
:10027000BB24650103C0EE24FF24870111969C91E5
:10028000D20111968C91981709F445C0992339F041
:10029000A80197012A193B094C095D0906C0A6016E
:1002A00095012E193F09400B510B57FD08C01182D3
:1002B0003382228224833583468357831DC081E0A5
:1002C00081833382228288279927DC01821B930B4A
:1002D000A40BB50B84839583A683B7830DC0220F2F
:1002E000331F441F551F24833583468357838281E0
:1002F000938101979383828324813581468157813D
:10030000DA01C9010197A109B1098F5F9F4FAF4F72
:10031000BF4328F30BC0918333822282EA0CFB1C7B
:100320000C1D1D1DE482F5820683178383E0808304
:10033000248135814681578157FF1AC0C901AA27F8
:1003400097FDA095BA2F81709070A070B0705695EF
:10035000479537952795822B932BA42BB52B848318
:100360009583A683B7838281938101969383828349
:10037000DF0101C0D201CD01CDB7DEB7E2E10C94BF
:100380002026A0E2B0E0E7ECF1E00C9410266983AF
:100390007A838B839C832D833E834F835887E9E048
:1003A000EE2EF12CEC0EFD1ECE010196B7010E943F
:1003B0002B068E010F5E1F4FCE010596B8010E94DD
:1003C0002B068A8991E089278A8BC701B801AE0183
:1003D000475E5F4F0E9475000E945605A096E6E0BA
:1003E0000C942C26A0E2B0E0E8EFF1E00C9410268B
:1003F00069837A838B839C832D833E834F835887C5
:10040000F9E0EF2EF12CEC0EFD1ECE010196B701A6
:100410000E942B068E010F5E1F4FCE010596B8017C
:100420000E942B06C701B801AE01475E5F4F0E94D4
:1004300075000E945605A096E6E00C942C26A0E2DA
:10044000B0E0E5E2F2E00C94042669837A838B83C2
:100450009C832D833E834F835887CE010196BE0136
:10046000675F7F4F0E942B06CE010596BE016F5E2F
:100470007F4F0E942B069985923088F089898230BF
:10048000C8F0943019F4823051F404C0843029F457
:10049000923081F48DEF90E0C6C0923049F420E0B4
:1004A0009A858A89981321E02A87CE010996BBC0D4
:1004B000823049F420E09A858A89981321E02A8BBA
:1004C000CE014196B0C02D843E844F8458886D88FB
:1004D0007E888F88988CEE24FF248701AA24BB2471
:1004E000650140E050E060E070E0E0E0F0E0C10174
:1004F00081709070892BE9F0E60CF71C081D191D1E
:100500009A01AB012A0D3B1D4C1D5D1D80E090E062
:10051000A0E0B0E0E614F7040805190520F481E036
:1005200090E0A0E0B0E0BA01A901480F591F6A1F8E
:100530007B1FAA0CBB1CCC1CDD1C97FE08C081E0F5
:1005400090E0A0E0B0E0A82AB92ACA2ADB2A3196B6
:10055000E032F10549F0660C771C881C991C569412
:10056000479437942794C3CFFA85EA892B893C892D
:100570008B859C85280F391F2E5F3F4F17C0CA01FE
:1005800081709070892B61F016950795F794E79428
:1005900080E090E0A0E0B0E8E82AF92A0A2B1B2BC3
:1005A00076956795579547952F5F3F4F77FDE7CF36
:1005B0000CC0440F551F661F771F17FD4160EE0CDE
:1005C000FF1C001F111F21503040403090E05907A0
:1005D00090E0690790E4790760F32B8F3C8FDB0193
:1005E000CA018F779070A070B07080349105A1051A
:1005F000B10561F447FD0AC0E114F10401051105DC
:1006000029F0405C5F4F6F4F7F4F40781A8EFE1786
:1006100011F081E08A8F4D8F5E8F6F8F78A383E01A
:10062000898FCE0149960E945605A096E2E10C946E
:100630002026A8E1B0E0EFE1F3E00C940C266983FA
:100640007A838B839C832D833E834F835887B9E0C5
:10065000EB2EF12CEC0EFD1ECE010196B7010E948F
:100660002B068E010F5E1F4FCE010596B8010E942A
:100670002B062985223008F47EC03989323010F4E7
:10068000B8017CC08A859A8989278A87243011F02D
:10069000223031F4231709F06EC06DEF70E06EC0A8
:1006A000343039F41D861E861F86188A1C861B86E8
:1006B00004C0323021F484E08987B7015FC02B8504
:1006C0003C858B899C89281B390B3C872B87ED84C3
:1006D000FE840F851889AD88BE88CF88D88CEA142F
:1006E000FB040C051D0540F4EE0CFF1C001F111F40
:1006F000215030403C872B8720E030E040E050E044
:1007000080E090E0A0E0B0E460E070E0EA14FB0478
:100710000C051D0540F0282B392B4A2B5B2BEA18C2
:10072000FB080C091D09B695A79597958795EE0CC2
:10073000FF1C001F111F6F5F7F4F6F31710531F775
:10074000DA01C9018F779070A070B0708034910584
:10075000A105B10561F427FD0AC0E114F10401050A
:10076000110529F0205C3F4F4F4F5F4F20782D87B8
:100770003E874F87588BBE01675F7F4FCB010E943A
:1007800056056896EAE00C942826A8E1B0E0EBEC68
:10079000F3E00C94102669837A838B839C832D83EA
:1007A0003E834F83588789E0E82EF12CEC0EFD1E26
:1007B000CE010196B7010E942B068E010F5E1F4FDE
:1007C000CE010596B8010E942B068985823040F043
:1007D0008989823028F0C701B8010E94A30601C0B0
:1007E0008FEF6896E6E00C942C26A8E1B0E0EBEFE2
:1007F000F3E00C94102669837A838B839C832D838A
:100800003E834F83588789E0E82EF12CEC0EFD1EC5
:10081000CE010196B7010E942B068E010F5E1F4F7D
:10082000CE010596B8010E942B068985823040F0E2
:100830008989823028F0C701B8010E94A30601C04F
:100840008FEF6896E6E00C942C26A8E1B0E0EBE28E
:10085000F4E00C94102669837A838B839C832D8328
:100860003E834F83588789E0E82EF12CEC0EFD1E65
:10087000CE010196B7010E942B068E010F5E1F4F1D
:10088000CE010596B8010E942B068985823040F082
:100890008989823028F0C701B8010E94A30601C0EF
:1008A00081E06896E6E00C942C26A8E0B0E0EBE549
:1008B000F4E00C940D269B01AC0183E08983DA01FE
:1008C000C9018827B7FD83959927AA27BB27B82E8A
:1008D000211531054105510519F482E089833AC09B
:1008E0008823A9F0203080E0380780E0480780E8BE
:1008F000580729F460E070E080E09FEC30C0EE24FF
:10090000FF248701E21AF30A040B150B02C07901D8
:100910008A018EE1C82ED12CDC82CB82ED82FE8250
:100920000F831887C801B7010E94070501971816A1
:10093000190684F4082E04C0EE0CFF1C001F111FC2
:100940000A94D2F7ED82FE820F831887C81AD90A5B
:10095000DC82CB82BA82CE0101960E94560528968F
:10096000E9E00C942926ACE0B0E0E9EBF4E00C946B
:10097000142669837A838B839C83CE010196BE0102
:100980006B5F7F4F0E942B068D81823061F1823038
:1009900050F1843021F48E81882351F12EC02F81B3
:1009A000388537FD20C06E812F3131051CF066235C
:1009B000F9F023C08EE190E0821B930B29853A85E4
:1009C0004B855C8504C056954795379527958A9544
:1009D000D2F76623B1F050954095309521953F4F61
:1009E0004F4F5F4F0EC020E030E040E050E009C0C4
:1009F0002FEF3FEF4FEF5FE704C020E030E040E033
:100A000050E8B901CA012C96E2E00C943026EF922E
:100A1000FF920F931F937B018C0180E0E81680E02A
:100A2000F80681E0080780E0180788F48FEFE816E1
:100A3000F1040105110531F028F088E090E0A0E014
:100A4000B0E017C080E090E0A0E0B0E012C080E02D
:100A5000E81680E0F80680E0080781E0180728F033
:100A600088E190E0A0E0B0E004C080E190E0A0E088
:100A7000B0E020E230E040E050E0281B390B4A0BA8
:100A80005B0B04C016950795F794E7948A95D2F707
:100A9000F701EB5FFE4F8081281B310941095109A5
:100AA000C9011F910F91FF90EF900895DF92EF928F
:100AB000FF920F931F93FC01E480F580068117815C
:100AC000D1808081823048F480E090E0A0E1B0E005
:100AD000E82AF92A0A2B1B2BA5C0843009F49FC0F1
:100AE000823021F4EE24FF24870105C0E114F104D3
:100AF0000105110519F4E0E0F0E096C06281738110
:100B00009FEF623879070CF05BC022E83FEF261BAD
:100B1000370B2A3131052CF020E030E040E050E086
:100B20002AC0B801A701022E04C076956795579593
:100B300047950A94D2F781E090E0A0E0B0E004C0CD
:100B4000880F991FAA1FBB1F2A95D2F70197A109E9
:100B5000B1098E219F21A023B1230097A105B105E2
:100B600021F081E090E0A0E0B0E09A01AB01282BF9
:100B7000392B4A2B5B2BDA01C9018F779070A0705B
:100B8000B07080349105A105B10539F427FF09C083
:100B9000205C3F4F4F4F5F4F04C0215C3F4F4F4F92
:100BA0005F4FE0E0F0E02030A0E03A07A0E04A0725
:100BB000A0E45A0710F0E1E0F0E079018A0127C0D3
:100BC0006038710564F5FB01E158FF4FD801C7019A
:100BD0008F779070A070B07080349105A105B10539
:100BE00039F4E7FE0DC080E490E0A0E0B0E004C07E
:100BF0008FE390E0A0E0B0E0E80EF91E0A1F1B1F93
:100C000017FF05C016950795F794E794319687E08E
:100C100016950795F794E7948A95D1F705C0EE24C9
:100C2000FF248701EFEFF0E06E2F67956627679549
:100C3000902F9F77D794DD24D7948E2F8695492FB8
:100C4000462B582F5D29B701CA011F910F91FF90C4
:100C5000EF90DF900895FC01DB01408151812281FA
:100C6000622F6F7770E0221F2227221F9381892F26
:100C7000880F822B282F30E0991F9927991F1196F2
:100C80009C93119721153105A9F541155105610571
:100C9000710511F482E037C082E89FEF13969C93B0
:100CA0008E9312979A01AB0167E0220F331F441F06
:100CB000551F6A95D1F783E08C930DC0220F331F27
:100CC000441F551F12968D919C911397019713966F
:100CD0009C938E931297203080E0380780E048077D
:100CE00080E4580758F314962D933D934D935C93ED
:100CF000179708952F3F310579F441155105610586
:100D0000710519F484E08C93089564FF03C081E0B9
:100D10008C9312C01C9210C02F57304013963C93F6
:100D20002E93129783E08C9387E0440F551F661F24
:100D3000771F8A95D1F7706414964D935D936D93E8
:100D40007C93179708951F93DC01FB019C919230CF
:100D500008F447C08081823008F443C0943051F4D5
:100D600011961C91843099F58181682F70E0611B88
:100D700071093FC0843021F0923031F48230B9F1F2
:100D80008181882389F12DC011961C9111978230A1
:100D9000F1F081811817D9F412962D913C91139797
:100DA000828193818217930794F028173907BCF04A
:100DB00014968D919D910D90BC91A02D248135812B
:100DC00046815781281739074A075B0718F4112312
:100DD00041F00AC082179307A407B50740F4112316
:100DE00019F061E070E005C06FEF7FEF02C060E0D6
:100DF00070E0CB011F910895DF93CF93CDB7DEB79D
:100E00000E945E240E9434160E94F8250E94B52597
:100E10001092690285E080930502CF91DF910895D9
:100E2000DF93CF93CDB7DEB71092670210926802BE
:100E300080916602882381F40E9497080E94FC0634
:100E400080E00E94FC230E94AA2380E690E00E949A
:100E5000262381E080936602CF91DF910895DF938E
:100E6000CF93CDB7DEB710926602109268028091E0
:100E70006702882381F40E9497080E94FC0681E0A3
:100E80000E94FC230E94AA238CE690E00E94262365
:100E900081E080936702CF91DF910895DF93CF9334
:100EA000CDB7DEB72D970FB6F894DEBF0FBECDBF1E
:100EB0001092660210926702809168028823E1F521
:100EC0000E9497080E94FC0682E00E94FC230E9478
:100ED00028160E94EC250E94AA238BE790E00E942E
:100EE0002623CE0101969A878987E6E0F2E0FC8707
:100EF000EB87F8E0FD87EB85FC8500808B859C8582
:100F000001969C878B87E985FA85008289859A8579
:100F100001969A8789879D8591509D87ED85EE235F
:100F200051F7CE0101960E941A258FEF97E00E949B
:100F3000C92581E0809368022D960FB6F894DEBF34
:100F40000FBECDBFCF91DF910895DF93CF93CDB783
:100F5000DEB780916A02893128F410926D020E94F6
:100F6000C80713C080916A02823330F481E0809315
:100F70006D020E94C80709C080916A02853628F474
:100F800082E080936D020E94C807CF91DF9108959F
:100F9000DF93CF9300D0CDB7DEB780916D02282FBD
:100FA00030E03A83298389819A818130910581F0EB
:100FB00029813A812230310591F089819A81009707
:100FC000A1F480E197E090936C0280936B020DC0D6
:100FD0008FE297E090936C0280936B0206C08EE4E0
:100FE00097E090936C0280936B02E0916B02F0911A
:100FF0006C0209950F900F90CF91DF910895DF93C8
:10100000CF93CDB7DEB780916902882361F48CE37A
:101010008093690280910502882329F0809105025E
:10102000815080930502809169028150809369020A
:101030000E94B60980910502882341F480916902DB
:10104000882321F40E94B5250E946008CF91DF918A
:101050000895DF93CF93CDB7DEB72D970FB6F894F1
:10106000DEBF0FBECDBFCE0101969A878987EEE025
:10107000F2E0FC87EB87F8E0FD87EB85FC850080DC
:101080008B859C8501969C878B87E985FA850082F4
:1010900089859A8501969A8789879D8591509D8734
:1010A000ED85EE2351F7CE0101960E941A252D966B
:1010B0000FB6F894DEBF0FBECDBFCF91DF9108957C
:1010C000DF93CF93CDB7DEB72D970FB6F894DEBF81
:1010D0000FBECDBFCE0101969A878987E6E1F2E087
:1010E000FC87EB87F8E0FD87EB85FC8500808B852E
:1010F0009C8501969C878B87E985FA850082898586
:101100009A8501969A8789879D8591509D87ED855F
:10111000EE2351F7CE0101960E941A252D960FB6A7
:10112000F894DEBF0FBECDBFCF91DF910895DF935E
:10113000CF93CDB7DEB76E970FB6F894DEBF0FBE74
:10114000CDBF8AE20E94481580E090E0A8E4B2E4B6
:10115000898F9A8FAB8FBC8F698D7A8D8B8D9C8D8B
:1011600020E030E04AEF54E40E941F02DC01CB0192
:101170008D8B9E8BAF8BB88F6D897E898F89988D73
:1011800020E030E040E85FE30E94250488232CF44F
:1011900081E090E09C8B8B8B3FC06D897E898F892D
:1011A000988D20E03FEF4FE757E40E94C5031816E3
:1011B0004CF5698D7A8D8B8D9C8D20E030E040E27E
:1011C00051E40E941F02DC01CB01BC01CD010E9451
:1011D0004900DC01CB019C8B8B8B0FC088EC90E02D
:1011E0009A8B898B89899A890197F1F79A8B898BD8
:1011F0008B899C8901979C8B8B8B8B899C89009711
:1012000069F714C06D897E898F89988D0E94490085
:10121000DC01CB019C8B8B8B8B899C89988B8F8776
:101220008F8598890197F1F7988B8F8780916D0250
:10123000282F30E03E8F2D8F8D8D9E8D8130910532
:1012400071F02D8D3E8D2230310571F08D8D9E8D8A
:10125000009771F489E890E00E94691509C08FE851
:1012600090E00E94691504C088E990E00E94691529
:1012700080E090E0A8E4B2E48B879C87AD87BE87CE
:101280006B857C858D859E8520E030E04AEF54E4B7
:101290000E941F02DC01CB018F839887A987BA8740
:1012A0006F81788589859A8520E030E040E85FE3AA
:1012B0000E94250488232CF481E090E09E838D8396
:1012C0003FC06F81788589859A8520E03FEF4FE7A1
:1012D00057E40E94C50318164CF56B857C858D85F7
:1012E0009E8520E030E040E251E40E941F02DC01D4
:1012F000CB01BC01CD010E944900DC01CB019E83E2
:101300008D830FC088EC90E09C838B838B819C81C4
:101310000197F1F79C838B838D819E8101979E833A
:101320008D838D819E81009769F714C06F817885C8
:1013300089859A850E944900DC01CB019E838D83BB
:101340008D819E819A83898389819A810197F1F7A2
:101350009A8389838BE30E9448156E960FB6F894A2
:10136000DEBF0FBECDBFCF91DF9108950F931F93C6
:10137000DF93CF93CDB7DEB7C654D0400FB6F89405
:10138000DEBF0FBECDBF80916902282F30E000D0B4
:1013900000D000D0EDB7FEB7319684E792E091839C
:1013A000808380EA90E093838283358324830E9444
:1013B0005C268DB79EB706960FB6F8949EBF0FBEFB
:1013C0008DBF80910502282F30E000D000D000D0E2
:1013D000EDB7FEB7319686E792E09183808380EA8D
:1013E00090E093838283358324830E945C26EDB74B
:1013F000FEB736960FB6F894FEBF0FBEEDBF83EA78
:1014000090E00E946915FE01ED5BFF4F80E090E0E7
:10141000A0E2B1E480839183A283B3838E01015C57
:101420001F4FFE01ED5BFF4F6081718182819381CF
:1014300020E030E04AEF54E40E941F02DC01CB01BF
:10144000F80180839183A283B383FE01FF966081BC
:1014500071818281938120E030E040E85FE30E9467
:10146000250488232CF481E090E09EAF8DAF46C028
:10147000FE01FF96608171818281938120E03FEFC0
:101480004FE757E40E94C503181664F5FE01ED5BB3
:10149000FF4F608171818281938120E030E040E2E2
:1014A00051E40E941F02DC01CB01BC01CD010E946E
:1014B0004900DC01CB019EAF8DAF0FC088EC90E0FE
:1014C0009CAF8BAF8BAD9CAD0197F1F79CAF8BAF11
:1014D0008DAD9EAD01979EAF8DAF8DAD9EAD00974A
:1014E00069F716C0FE01FF96608171818281938148
:1014F0000E944900DC01CB019EAF8DAF8DAD9EAD4A
:101500009AAF89AF89AD9AAD0197F1F79AAF89AFDC
:1015100086E792E00E94691580E090E0A0E2B1E4E5
:101520008DAB9EABAFABB8AF6DA97EA98FA998ADBF
:1015300020E030E04AEF54E40E941F02DC01CB01BE
:1015400089AB9AABABABBCAB69A97AA98BA99CA9B7
:1015500020E030E040E85FE30E94250488232CF47B
:1015600081E090E098AB8FA73FC069A97AA98BA9C9
:101570009CA920E03FEF4FE757E40E94C5031816EF
:101580004CF56DA97EA98FA998AD20E030E040E22E
:1015900051E40E941F02DC01CB01BC01CD010E947D
:1015A0004900DC01CB0198AB8FA70FC088EC90E01D
:1015B0009EA78DA78DA59EA50197F1F79EA78DA744
:1015C0008FA598A9019798AB8FA78FA598A9009789
:1015D00069F714C069A97AA98BA99CA90E9449003E
:1015E000DC01CB0198AB8FA78FA598A99CA78BA7EF
:1015F0008BA59CA50197F1F79CA78BA786EA90E0A5
:101600000E94691580E090E0A0E2B1E48FA398A762
:10161000A9A7BAA76FA178A589A59AA520E030E06F
:101620004AEF54E40E941F02DC01CB018BA39CA370
:10163000ADA3BEA36BA17CA18DA19EA120E030E053
:1016400040E85FE30E94250488232CF481E090E0C9
:101650009AA389A33FC06BA17CA18DA19EA120E08C
:101660003FEF4FE757E40E94C50318164CF56FA1F2
:1016700078A589A59AA520E030E040E251E40E94D7
:101680001F02DC01CB01BC01CD010E944900DC013D
:10169000CB019AA389A30FC088EC90E098A38F8F09
:1016A0008F8D98A10197F1F798A38F8F89A19AA1A7
:1016B00001979AA389A389A19AA1009769F714C0F9
:1016C0006BA17CA18DA19EA10E944900DC01CB01F0
:1016D0009AA389A389A19AA19E8F8D8F8D8D9E8DAE
:1016E0000197F1F79E8F8D8F84E792E00E94691534
:1016F00080E090E0A0E2B1E4898F9A8FAB8FBC8F3D
:10170000698D7A8D8B8D9C8D20E030E04AEF54E41A
:101710000E941F02DC01CB018D8B9E8BAF8BB88F9B
:101720006D897E898F89988D20E030E040E85FE305
:101730000E94250488232CF481E090E09C8B8B8B05
:101740003FC06D897E898F89988D20E03FEF4FE7FC
:1017500057E40E94C50318164CF5698D7A8D8B8D60
:101760009C8D20E030E040E251E40E941F02DC0149
:10177000CB01BC01CD010E944900DC01CB019C8B57
:101780008B8B0FC088EC90E09A8B898B89899A8922
:101790000197F1F79A8B898B8B899C8901979C8B98
:1017A0008B8B8B899C89009769F714C06D897E8922
:1017B0008F89988D0E944900DC01CB019C8B8B8B1B
:1017C0008B899C89988B8F878F8598890197F1F7F2
:1017D000988B8F878BE30E94481580E090E0A0E211
:1017E000B1E48B879C87AD87BE876B857C858D85B3
:1017F0009E8520E030E04AEF54E40E941F02DC01A5
:10180000CB018F839887A987BA876F81788589856F
:101810009A8520E030E040E85FE30E9425048823B9
:101820002CF481E090E09E838D833FC06F817885AA
:1018300089859A8520E03FEF4FE757E40E94C50372
:1018400018164CF56B857C858D859E8520E030E0F3
:1018500040E251E40E941F02DC01CB01BC01CD013A
:101860000E944900DC01CB019E838D830FC088EC70
:1018700090E09C838B838B819C810197F1F79C8303
:101880008B838D819E8101979E838D838D819E8127
:10189000009769F714C06F81788589859A850E94C1
:1018A0004900DC01CB019E838D838D819E819A83CB
:1018B000898389819A810197F1F79A838983CA5B29
:1018C000DF4F0FB6F894DEBF0FBECDBFCF91DF91D3
:1018D0001F910F910895DF93CF93CDB7DEB7E897AF
:1018E0000FB6F894DEBF0FBECDBF80916A02282FDD
:1018F00030E000D000D000D0EDB7FEB7319687E7DA
:1019000092E09183808380EA90E0938382833583A1
:1019100024830E945C268DB79EB706960FB6F89476
:101920009EBF0FBE8DBF88EA90E00E94691580E0DF
:1019300090E0A8E4B2E48DAB9EABAFABB8AF6DA9BD
:101940007EA98FA998AD20E030E04AEF54E40E94D0
:101950001F02DC01CB0189AB9AABABABBCAB69A975
:101960007AA98BA99CA920E030E040E85FE30E94BF
:10197000250488232CF481E090E098AB8FA73FC02A
:1019800069A97AA98BA99CA920E03FEF4FE757E40A
:101990000E94C50318164CF56DA97EA98FA998ADB4
:1019A00020E030E040E251E40E941F02DC01CB0164
:1019B000BC01CD010E944900DC01CB0198AB8FA78F
:1019C0000FC088EC90E09EA78DA78DA59EA50197DE
:1019D000F1F79EA78DA78FA598A9019798AB8FA720
:1019E0008FA598A9009769F714C069A97AA98BA94E
:1019F0009CA90E944900DC01CB0198AB8FA78FA561
:101A000098A99CA78BA78BA59CA50197F1F79CA7EC
:101A10008BA787E792E00E94691580E090E0A0E242
:101A2000B1E48FA398A7A9A7BAA76FA178A589A5A4
:101A30009AA520E030E04AEF54E40E941F02DC0146
:101A4000CB018BA39CA3ADA3BEA36BA17CA18DA155
:101A50009EA120E030E040E85FE30E942504882357
:101A60002CF481E090E09AA389A33FC06BA17CA1F4
:101A70008DA19EA120E03FEF4FE757E40E94C503F0
:101A800018164CF56FA178A589A59AA520E030E03D
:101A900040E251E40E941F02DC01CB01BC01CD01F8
:101AA0000E944900DC01CB019AA389A30FC088ECF6
:101AB00090E098A38F8F8F8D98A10197F1F798A34D
:101AC0008F8F89A19AA101979AA389A389A19AA12D
:101AD000009769F714C06BA17CA18DA19EA10E9403
:101AE0004900DC01CB019AA389A389A19AA19E8F09
:101AF0008D8F8D8D9E8D0197F1F79E8F8D8F85E255
:101B00000E94481580E090E0A8E4B2E4898F9A8FA3
:101B1000AB8FBC8F698D7A8D8B8D9C8D20E030E0F2
:101B20004AEF54E40E941F02DC01CB018D8B9E8B97
:101B3000AF8BB88F6D897E898F89988D20E030E0DA
:101B400040E85FE30E94250488232CF481E090E0C4
:101B50009C8B8B8B3FC06D897E898F89988D20E00F
:101B60003FEF4FE757E40E94C50318164CF5698D07
:101B70007A8D8B8D9C8D20E030E040E251E40E9414
:101B80001F02DC01CB01BC01CD010E944900DC0138
:101B9000CB019C8B8B8B0FC088EC90E09A8B898B50
:101BA00089899A890197F1F79A8B898B8B899C890E
:101BB00001979C8B8B8B8B899C89009769F714C04C
:101BC0006D897E898F89988D0E944900DC01CB0147
:101BD0009C8B8B8B8B899C89988B8F878F85988921
:101BE0000197F1F7988B8F878BE30E94481580E06F
:101BF00090E0A8E4B2E48B879C87AD87BE876B85B5
:101C00007C858D859E8520E030E04AEF54E40E947B
:101C10001F02DC01CB018F839887A987BA876F8168
:101C2000788589859A8520E030E040E85FE30E946E
:101C3000250488232CF481E090E09E838D833FC0AF
:101C40006F81788589859A8520E03FEF4FE757E4DB
:101C50000E94C50318164CF56B857C858D859E8585
:101C600020E030E040E251E40E941F02DC01CB01A1
:101C7000BC01CD010E944900DC01CB019E838D8314
:101C80000FC088EC90E09C838B838B819C810197B3
:101C9000F1F79C838B838D819E8101979E838D8339
:101CA0008D819E81009769F714C06F817885898541
:101CB0009A850E944900DC01CB019E838D838D8132
:101CC0009E819A83898389819A810197F1F79A830A
:101CD0008983E8960FB6F894DEBF0FBECDBFCF91D3
:101CE000DF9108950F931F93DF93CF93CDB7DEB7A6
:101CF000C357D0400FB6F894DEBF0FBECDBFFE0174
:101D0000EF58FF4F1082CE018F589F4F0E949B15B6
:101D1000FE01EF58FF4F8081282F30E0E4963FAF5F
:101D20002EAFE497E4968EAD9FADE4978133910595
:101D300009F493C1E496EEADFFADE497E233F1050B
:101D400044F4E4962EAD3FADE4972033310591F095
:101D5000AAC4E4968EAD9FADE4978233910509F451
:101D6000C1C2E496EEADFFADE497E333F10509F4AB
:101D7000AAC399C40E9429088AE20E944815FE015C
:101D8000E359FF4F80E090E0A8E4B2E480839183C0
:101D9000A283B3838E0107591F4FFE01E359FF4F02
:101DA000608171818281938120E030E04AEF54E4C8
:101DB0000E941F02DC01CB01F80180839183A28382
:101DC000B383FE01E759FF4F608171818281938166
:101DD00020E030E040E85FE30E942504882344F4DB
:101DE000FE01E959FF4F81E090E09183808364C058
:101DF000FE01E759FF4F608171818281938120E06C
:101E00003FEF4FE757E40E94C50318160CF043C09C
:101E1000FE01E359FF4F608171818281938120E04F
:101E200030E040E251E40E941F02DC01CB018E0150
:101E300009591F4FBC01CD010E944900DC01CB01B3
:101E4000F801918380831FC0FE01EB59FF4F88EC9E
:101E500090E091838083FE01EB59FF4F8081918157
:101E60000197F1F7FE01EB59FF4F91838083DE016B
:101E7000A959BF4FFE01E959FF4F80819181019718
:101E800011969C938E93FE01E959FF4F80819181B9
:101E90000097D1F627C08E0109591F4FFE01E7595F
:101EA000FF4F60817181828193810E944900DC0132
:101EB000CB01F80191838083DE01AD59BF4FFE0154
:101EC000E959FF4F808191818D939C93FE01ED59DB
:101ED000FF4F808191810197F1F7FE01ED59FF4F8E
:101EE000918380838BEA90E00E946915FE01E15A9C
:101EF000FF4F80E090E0A8E4B2E480839183A28366
:101F0000B3838E01055A1F4FFE01E15AFF4F6081D6
:101F100071818281938120E030E04AEF54E40E9495
:101F20001F02DC01CB01F80180839183A283B3837C
:101F3000FE01E55AFF4F608171818281938120E02B
:101F400030E040E85FE30E942504882344F4FE016A
:101F5000E75AFF4F81E090E09183808364C0FE01E7
:101F6000E55AFF4F608171818281938120E03FEFCC
:101F70004FE757E40E94C50318160CF043C0FE015A
:101F8000E15AFF4F608171818281938120E030E0CE
:101F900040E251E40E941F02DC01CB018E01075A8E
:101FA0001F4FBC01CD010E944900DC01CB01F801AB
:101FB000918380831FC0FE01E95AFF4F88EC90E0B7
:101FC00091838083FE01E95AFF4F808191810197BF
:101FD000F1F7FE01E95AFF4F91838083DE01A75A92
:101FE000BF4FFE01E75AFF4F808191810197119603
:101FF0009C938E93FE01E75AFF4F80819181009759
:10200000D1F627C08E01075A1F4FFE01E55AFF4F38
:1020100060817181828193810E944900DC01CB0142
:10202000F80191838083DE01AB5ABF4FFE01E75A6E
:10203000FF4F808191818D939C93FE01EB5AFF4F5E
:10204000808191810197F1F7FE01EB5AFF4F918357
:1020500080838BE30E94481526C30E9460088AE2B1
:102060000E944815FE01EF5AFF4F80E090E0A8E47F
:10207000B2E480839183A283B3838E01035B1F4FFD
:10208000FE01EF5AFF4F608171818281938120E0D0
:1020900030E04AEF54E40E941F02DC01CB01F8015A
:1020A00080839183A283B383FE01E35BFF4F608152
:1020B00071818281938120E030E040E85FE30E94FB
:1020C0002504882344F4FE01E55BFF4F81E090E0A6
:1020D0009183808364C0FE01E35BFF4F6081718167
:1020E0008281938120E03FEF4FE757E40E94C503D0
:1020F00018160CF043C0FE01EF5AFF4F608171814A
:102100008281938120E030E040E251E40E941F028E
:10211000DC01CB018E01055B1F4FBC01CD010E948C
:102120004900DC01CB01F801918380831FC0FE01CF
:10213000E75BFF4F88EC90E091838083FE01E75BD3
:10214000FF4F808191810197F1F7FE01E75BFF4F1F
:1021500091838083DE01A55BBF4FFE01E55BFF4FEE
:1021600080819181019711969C938E93FE01E55B8E
:10217000FF4F808191810097D1F627C08E01055BCA
:102180001F4FFE01E35BFF4F60817181828193816C
:102190000E944900DC01CB01F80191838083DE01BC
:1021A000A95BBF4FFE01E55BFF4F808191818D935D
:1021B0009C93FE01E95BFF4F808191810197F1F7CC
:1021C000FE01E95BFF4F9183808387EB90E00E94E3
:1021D0006915FE01ED5BFF4F80E090E0A8E4B2E4FA
:1021E00080839183A283B3838E01015C1F4FFE0124
:1021F000ED5BFF4F608171818281938120E030E04F
:102200004AEF54E40E941F02DC01CB01F8018083F5
:102210009183A283B383FE01FF96608171818281E5
:10222000938120E030E040E85FE30E9425048823AA
:102230002CF481E090E09EAF8DAF46C0FE01FF968A
:10224000608171818281938120E03FEF4FE757E405
:102250000E94C503181664F5FE01ED5BFF4F608117
:1022600071818281938120E030E040E251E40E945C
:102270001F02DC01CB01BC01CD010E944900DC0141
:10228000CB019EAF8DAF0FC088EC90E09CAF8BAFC1
:102290008BAD9CAD0197F1F79CAF8BAF8DAD9EAD33
:1022A00001979EAF8DAF8DAD9EAD009769F716C0BB
:1022B000FE01FF9660817181828193810E944900B5
:1022C000DC01CB019EAF8DAF8DAD9EAD9AAF89AFD6
:1022D00089AD9AAD0197F1F79AAF89AF8BE30E9470
:1022E0004815E1C10E94EC258AE20E94481580E071
:1022F00090E0A8E4B2E48DAB9EABAFABB8AF6DA9F4
:102300007EA98FA998AD20E030E04AEF54E40E9406
:102310001F02DC01CB0189AB9AABABABBCAB69A9AB
:102320007AA98BA99CA920E030E040E85FE30E94F5
:10233000250488232CF481E090E098AB8FA73FC060
:1023400069A97AA98BA99CA920E03FEF4FE757E440
:102350000E94C50318164CF56DA97EA98FA998ADEA
:1023600020E030E040E251E40E941F02DC01CB019A
:10237000BC01CD010E944900DC01CB0198AB8FA7C5
:102380000FC088EC90E09EA78DA78DA59EA5019714
:10239000F1F79EA78DA78FA598A9019798AB8FA756
:1023A0008FA598A9009769F714C069A97AA98BA984
:1023B0009CA90E944900DC01CB0198AB8FA78FA597
:1023C00098A99CA78BA78BA59CA50197F1F79CA723
:1023D0008BA783EC90E00E94691580E090E0A8E470
:1023E000B2E48FA398A7A9A7BAA76FA178A589A5DA
:1023F0009AA520E030E04AEF54E40E941F02DC017D
:10240000CB018BA39CA3ADA3BEA36BA17CA18DA18B
:102410009EA120E030E040E85FE30E94250488238D
:102420002CF481E090E09AA389A33FC06BA17CA12A
:102430008DA19EA120E03FEF4FE757E40E94C50326
:1024400018164CF56FA178A589A59AA520E030E073
:1024500040E251E40E941F02DC01CB01BC01CD012E
:102460000E944900DC01CB019AA389A30FC088EC2C
:1024700090E098A38F8F8F8D98A10197F1F798A383
:102480008F8F89A19AA101979AA389A389A19AA163
:10249000009769F714C06BA17CA18DA19EA10E9439
:1024A0004900DC01CB019AA389A389A19AA19E8F3F
:1024B0008D8F8D8D9E8D0197F1F79E8F8D8F8BE384
:1024C0000E944815F0C00E94F8258AE20E94481533
:1024D00080E090E0A8E4B2E4898F9A8FAB8FBC8F44
:1024E000698D7A8D8B8D9C8D20E030E04AEF54E42D
:1024F0000E941F02DC01CB018D8B9E8BAF8BB88FAE
:102500006D897E898F89988D20E030E040E85FE317
:102510000E94250488232CF481E090E09C8B8B8B17
:102520003FC06D897E898F89988D20E03FEF4FE70E
:1025300057E40E94C50318164CF5698D7A8D8B8D72
:102540009C8D20E030E040E251E40E941F02DC015B
:10255000CB01BC01CD010E944900DC01CB019C8B69
:102560008B8B0FC088EC90E09A8B898B89899A8934
:102570000197F1F79A8B898B8B899C8901979C8BAA
:102580008B8B8B899C89009769F714C06D897E8934
:102590008F89988D0E944900DC01CB019C8B8B8B2D
:1025A0008B899C89988B8F878F8598890197F1F704
:1025B000988B8F8788ED90E00E94691580E090E00D
:1025C000A8E4B2E48B879C87AD87BE876B857C854A
:1025D0008D859E8520E030E04AEF54E40E941F0282
:1025E000DC01CB018F839887A987BA876F817885B3
:1025F00089859A8520E030E040E85FE30E94250469
:1026000088232CF481E090E09E838D833FC06F810E
:10261000788589859A8520E03FEF4FE757E40E944F
:10262000C50318164CF56B857C858D859E8520E04D
:1026300030E040E251E40E941F02DC01CB01BC010A
:10264000CD010E944900DC01CB019E838D830FC028
:1026500088EC90E09C838B838B819C810197F1F7C0
:102660009C838B838D819E8101979E838D838D8139
:102670009E81009769F714C06F81788589859A8556
:102680000E944900DC01CB019E838D838D819E8158
:102690009A83898389819A810197F1F79A83898343
:1026A0008BE30E944815CD58DF4F0FB6F894DEBF7C
:1026B0000FBECDBFCF91DF911F910F910895DF9392
:1026C000CF93CDB7DEB781E069E00E944F238091C0
:1026D0000502882F90E00E94B42326EA30E081E0D2
:1026E0006AE0A9010E949123809169028A3078F4FE
:1026F00081E06BE00E944F2380E090E00E94B423D1
:1027000080916902882F90E00E94B4230AC081E082
:102710006BE00E944F2380916902882F90E00E9415
:10272000B4232FEE30E081E06DE0A9010E949123F7
:10273000CF91DF910895DF93CF93CDB7DEB721EF2F
:1027400030E081E060E0A9010E94912380916A025B
:10275000843690F480916A028A3070F426EF30E07B
:1027600081E064E0A9010E94912380916A02882F90
:1027700090E00E94B42318C080916A02843670F4FD
:1027800029EF30E081E064E0A9010E94912380916B
:102790006A02882F90E00E94B42306C080916A02EA
:1027A000882F90E00E94B4232BEF30E081E067E0B7
:1027B000A9010E949123CF91DF910895DF93CF93D8
:1027C000CDB7DEB7AFE5B0E0EFE5F0E0808180683F
:1027D0008C930E94191482E79EE00E94A6140E9426
:1027E0006E140E94C0150E947E190E94D7230E9479
:1027F00017160E94DB2510926D0280E197E09093FE
:102800006C0280936B02E0916B02F0916C0209956F
:102810000E94742480936A020E946B0C0E949B1396
:102820000E94A50780916D02823091F70E945F138C
:10283000EFCFDF93CF9300D00F92CDB7DEB71B82DF
:102840001A821982ABE2B0E0EBE2F0E080818D7F8A
:102850008C938B8180688B838B818F7B8B838B8127
:102860008F7E8B838B818F7D8B838B8182608B832B
:102870008B8184608B83AAE2B0E0EAE2F0E08081A1
:102880008B7F8C938B81877F8B83E0E4F0E08B815F
:10289000808380912E0290912F029A838983E0E4B5
:1028A000F0E089819A81892F99278083E9E2F0E01D
:1028B00089818083AAE2B0E0EAE2F0E08081806171
:1028C0008C93AAE2B0E0EAE2F0E0808188608C9329
:1028D0000F900F900F90CF91DF910895DF93CF93DA
:1028E000CDB7DEB7AAE2B0E0EAE2F0E0808180682E
:1028F0008C93CF91DF910895DF93CF93CDB7DEB75F
:10290000AAE2B0E0EAE2F0E080818F778C93CF9189
:10291000DF910895DF93CF93CDB7DEB7AAE2B0E0A1
:10292000EAE2F0E0808180648C93CF91DF9108959A
:10293000DF93CF93CDB7DEB7AAE2B0E0EAE2F0E0F2
:1029400080818F7B8C93CF91DF910895DF93CF931C
:1029500000D0CDB7DEB79A83898389819A8190931D
:102960006F0280936E020F900F90CF91DF910895C8
:10297000DF93CF9300D0CDB7DEB79A838983898167
:102980009A8190937102809370020F900F90CF9173
:10299000DF9108951F920F920FB60F9211242F937B
:1029A0003F934F935F936F937F938F939F93AF93D7
:1029B000BF93EF93FF93DF93CF93CDB7DEB78091B3
:1029C0006E0290916F02009729F0E0916E02F091F3
:1029D0006F020995CF91DF91FF91EF91BF91AF9178
:1029E0009F918F917F916F915F914F913F912F9127
:1029F0000F900FBE0F901F9018951F920F920FB659
:102A00000F9211242F933F934F935F936F937F9374
:102A10008F939F93AF93BF93EF93FF93DF93CF93E6
:102A2000CDB7DEB78091700290917102009729F0C6
:102A3000E0917002F09171020995CF91DF91FF91C1
:102A4000EF91BF91AF919F918F917F916F915F9126
:102A50004F913F912F910F900FBE0F901F9018959F
:102A6000DF93CF930F92CDB7DEB78983ECE2F0E02E
:102A7000898180830F90CF91DF910895DF93CF9369
:102A8000CDB7DEB7ECE2F0E08081CF91DF91089521
:102A9000DF93CF930F92CDB7DEB78983EBE2F0E0FF
:102AA0008081882F90E0807290709595879595959C
:102AB0008795959587959595879595958795009791
:102AC00069F3ECE2F0E0898180830F90CF91DF9190
:102AD0000895DF93CF9300D0CDB7DEB79A83898373
:102AE0000BC0E981FA81208189819A8101969A83BC
:102AF0008983822F0E944815E981FA818081882389
:102B000081F70F900F90CF91DF910895DF93CF93CE
:102B1000CDB7DEB7EBE2F0E08081881F8827881F01
:102B2000882F90E090700097A9F3ECE2F0E08081AC
:102B3000CF91DF910895DF93CF9300D00F92CDB75F
:102B4000DEB79B838A831982EBE2F0E08081881FE5
:102B50008827881F882F90E09070009749F0ECE25A
:102B6000F0E08081EA81FB81808381E0898301C07C
:102B7000198289810F900F900F90CF91DF91089566
:102B8000DF93CF93CDB7DEB7A7E2B0E0E7E2F0E0A6
:102B900080818F7380648C93A6E2B0E0E6E2F0E07F
:102BA000808187608C93A6E2B0E0E6E2F0E080816D
:102BB00080688C93CF91DF910895DF93CF930F922C
:102BC000CDB7DEB78983A7E2B0E0E7E2F0E080812D
:102BD000982F907E89818F71892B8C93A6E2B0E02B
:102BE000E6E2F0E0808180648C93E6E2F0E08081B0
:102BF000882F90E0807190700097B9F3A6E2B0E062
:102C0000E6E2F0E0808180618C93E4E2F0E0808194
:102C1000282F30E0E5E2F0E08081882F90E0982FC7
:102C20008827820F931F0F90CF91DF910895DF9334
:102C3000CF93CDB7DEB780E061E041E00E9440165F
:102C400080E061E040E00E942B17CF91DF91089572
:102C5000DF93CF93CDB7DEB780E061E041E00E9423
:102C60002B17CF91DF910895DF93CF93CDB7DEB7C8
:102C700080E061E040E00E942B17CF91DF91089542
:102C8000DF93CF9300D000D00F92CDB7DEB789830A
:102C90006A834B838A81883008F0D5C0898184306B
:102CA00008F0D1C08981282F30E03D832C838C81AE
:102CB0009D818130910509F443C02C813D812230F2
:102CC00031052CF48C819D81009771F0BCC02C8162
:102CD0003D812230310509F45FC08C819D818330B4
:102CE000910509F485C0AFC08B818130A1F4AAE3BE
:102CF000B0E0EAE3F0E08081482F8A81282F30E0BD
:102D000081E090E0022E02C0880F991F0A94E2F73A
:102D1000842B8C9398C0AAE3B0E0EAE3F0E08081D2
:102D2000482F8A81282F30E081E090E0022E02C0F7
:102D3000880F991F0A94E2F7809584238C9383C0AF
:102D40008B818130A1F4A7E3B0E0E7E3F0E080817C
:102D5000482F8A81282F30E081E090E0022E02C0C7
:102D6000880F991F0A94E2F7842B8C936CC0A7E319
:102D7000B0E0E7E3F0E08081482F8A81282F30E03F
:102D800081E090E0022E02C0880F991F0A94E2F7BA
:102D9000809584238C9357C08B818130A1F4A4E368
:102DA000B0E0E4E3F0E08081482F8A81282F30E012
:102DB00081E090E0022E02C0880F991F0A94E2F78A
:102DC000842B8C9340C0A4E3B0E0E4E3F0E0808186
:102DD000482F8A81282F30E081E090E0022E02C047
:102DE000880F991F0A94E2F7809584238C932BC057
:102DF0008B818130A1F4A1E3B0E0E1E3F0E08081D8
:102E0000482F8A81282F30E081E090E0022E02C016
:102E1000880F991F0A94E2F7842B8C9314C0A1E3C6
:102E2000B0E0E1E3F0E08081482F8A81282F30E094
:102E300081E090E0022E02C0880F991F0A94E2F709
:102E4000809584238C930F900F900F900F900F908C
:102E5000CF91DF910895DF93CF9300D000D00F92F0
:102E6000CDB7DEB789836A834B838A81883008F0C7
:102E7000D5C08981843008F0D1C08981282F30E005
:102E80003D832C838C819D818130910509F443C061
:102E90002C813D81223031052CF48C819D8100975D
:102EA00071F0BCC02C813D812230310509F45FC036
:102EB0008C819D818330910509F485C0AFC08B81E1
:102EC0008130A1F4ABE3B0E0EBE3F0E08081482F88
:102ED0008A81282F30E081E090E0022E02C0880F26
:102EE000991F0A94E2F7842B8C9398C0ABE3B0E06F
:102EF000EBE3F0E08081482F8A81282F30E081E0E9
:102F000090E0022E02C0880F991F0A94E2F7809584
:102F100084238C9383C08B818130A1F4A8E3B0E03B
:102F2000E8E3F0E08081482F8A81282F30E081E0BB
:102F300090E0022E02C0880F991F0A94E2F7842BBA
:102F40008C936CC0A8E3B0E0E8E3F0E08081482F08
:102F50008A81282F30E081E090E0022E02C0880FA5
:102F6000991F0A94E2F7809584238C9357C08B8134
:102F70008130A1F4A5E3B0E0E5E3F0E08081482FE3
:102F80008A81282F30E081E090E0022E02C0880F75
:102F9000991F0A94E2F7842B8C9340C0A5E3B0E01C
:102FA000E5E3F0E08081482F8A81282F30E081E03E
:102FB00090E0022E02C0880F991F0A94E2F78095D4
:102FC00084238C932BC08B818130A1F4A2E3B0E0E9
:102FD000E2E3F0E08081482F8A81282F30E081E011
:102FE00090E0022E02C0880F991F0A94E2F7842B0A
:102FF0008C9314C0A2E3B0E0E2E3F0E08081482FBC
:103000008A81282F30E081E090E0022E02C0880FF4
:10301000991F0A94E2F7809584238C930F900F9068
:103020000F900F900F90CF91DF910895DF93CF9382
:1030300000D000D00F92CDB7DEB78A836B831982A0
:103040008B81883008F084C08A81843008F080C089
:103050008A81282F30E03D832C834C815D81413073
:10306000510579F18C819D818230910534F42C8158
:103070003D812115310569F06BC04C815D81423085
:103080005105B9F18C819D818330910509F449C0C6
:103090005FC0E9E3F0E08081282F30E08B81882F4A
:1030A00090E0A90102C0559547958A95E2F7CA01BB
:1030B00081709070882319F081E0898349C019825A
:1030C00047C0E6E3F0E08081282F30E08B81882F35
:1030D00090E0A90102C0559547958A95E2F7CA018B
:1030E00081709070882319F081E0898331C0198242
:1030F0002FC0E3E3F0E08081282F30E08B81882F20
:1031000090E0A90102C0559547958A95E2F7CA015A
:1031100081709070882319F081E0898319C0198229
:1031200017C0E0E3F0E08081282F30E08B81882F0A
:1031300090E0A90102C0559547958A95E2F7CA012A
:1031400081709070882319F081E0898301C0198211
:1031500089810F900F900F900F900F90CF91DF917A
:103160000895DF93CF9300D000D0CDB7DEB7898329
:103170006A838981843090F58981282F30E03C83EF
:103180002B838B819C8181309105D1F02B813C81F7
:10319000223031052CF48B819C81009761F01EC098
:1031A0002B813C812230310581F08B819C818330E1
:1031B000910581F013C0EAE3F0E08A8180830EC0BC
:1031C000E7E3F0E08A81808309C0E4E3F0E08A81EC
:1031D000808304C0E1E3F0E08A8180830F900F9048
:1031E0000F900F90CF91DF910895DF93CF9300D090
:1031F00000D0CDB7DEB789836A838981843090F5AA
:103200008981282F30E03C832B838B819C81813006
:103210009105D1F02B813C81223031052CF48B813A
:103220009C81009761F01EC02B813C8122303105CA
:1032300081F08B819C818330910581F013C0EBE399
:10324000F0E08A8180830EC0E8E3F0E08A81808329
:1032500009C0E5E3F0E08A81808304C0E2E3F0E0A6
:103260008A8180830F900F900F900F90CF91DF9104
:103270000895DF93CF9300D000D0CDB7DEB78A8317
:1032800019828A81843090F58A81282F30E03C832E
:103290002B838B819C8181309105D1F02B813C81E6
:1032A000223031052CF48B819C81009761F01EC087
:1032B0002B813C812230310581F08B819C818330D0
:1032C000910581F013C0E9E3F0E0808189830EC0AD
:1032D000E6E3F0E08081898309C0E3E3F0E08081E8
:1032E000898304C0E0E3F0E08081898389810F90C5
:1032F0000F900F900F90CF91DF910895DF93CF93B0
:10330000CDB7DEB72E970FB6F894DEBF0FBECDBF98
:1033100082E067E041E00E94401682E066E041E022
:103320000E94401680E090E0A0EAB1E48B879C8781
:10333000AD87BE876B857C858D859E8520E030E0DE
:103340004AEF54E40E941F02DC01CB018F8398876F
:10335000A987BA876F81788589859A8520E030E0D2
:1033600040E85FE30E94250488232CF481E090E08C
:103370009E838D833FC06F81788589859A8520E003
:103380003FEF4FE757E40E94C50318164CF56B85D5
:103390007C858D859E8520E030E040E251E40E94EE
:1033A0001F02DC01CB01BC01CD010E944900DC0100
:1033B000CB019E838D830FC088EC90E09C838B8330
:1033C0008B819C810197F1F79C838B838D819E81FA
:1033D00001979E838D838D819E81009769F714C02C
:1033E0006F81788589859A850E944900DC01CB012F
:1033F0009E838D838D819E819A83898389819A8121
:103400000197F1F79A83898382E065E041E00E94A9
:10341000401682E064E041E00E94401682E063E0F2
:1034200041E00E94401682E062E041E00E944016C6
:1034300083E30E94301A82E30E94301A88E20E94DD
:10344000301A8CE00E94301A81E00E94301A2E96C9
:103450000FB6F894DEBF0FBECDBFCF91DF910895B8
:103460000F931F93DF93CF93CDB7DEB7C356D040F2
:103470000FB6F894DEBF0FBECDBFFE01ED59FF4F72
:10348000808382E067E040E00E942B17FE01E15A52
:10349000FF4F80E090E0A0E8BFE380839183A283A8
:1034A000B3838E01055A1F4FFE01E15AFF4F608121
:1034B00071818281938120E030E04AEF54E40E94E0
:1034C0001F02DC01CB01F80180839183A283B383C7
:1034D000FE01E55AFF4F608171818281938120E076
:1034E00030E040E85FE30E942504882344F4FE01B5
:1034F000E75AFF4F81E090E09183808364C0FE0132
:10350000E55AFF4F608171818281938120E03FEF16
:103510004FE757E40E94C50318160CF043C0FE01A4
:10352000E15AFF4F608171818281938120E030E018
:1035300040E251E40E941F02DC01CB018E01075AD8
:103540001F4FBC01CD010E944900DC01CB01F801F5
:10355000918380831FC0FE01E95AFF4F88EC90E001
:1035600091838083FE01E95AFF4F80819181019709
:10357000F1F7FE01E95AFF4F91838083DE01A75ADC
:10358000BF4FFE01E75AFF4F80819181019711964D
:103590009C938E93FE01E75AFF4F808191810097A3
:1035A000D1F627C08E01075A1F4FFE01E55AFF4F83
:1035B00060817181828193810E944900DC01CB018D
:1035C000F80191838083DE01AB5ABF4FFE01E75AB9
:1035D000FF4F808191818D939C93FE01EB5AFF4FA9
:1035E000808191810197F1F7FE01EB5AFF4F9183A2
:1035F000808382E066E041E00E942B17FE01EF5AD3
:10360000FF4F80E090E0A0E8BFE380839183A28336
:10361000B3838E01035B1F4FFE01EF5AFF4F6081A2
:1036200071818281938120E030E04AEF54E40E946E
:103630001F02DC01CB01F80180839183A283B38355
:10364000FE01E35BFF4F608171818281938120E005
:1036500030E040E85FE30E942504882344F4FE0143
:10366000E55BFF4F81E090E09183808364C0FE01C1
:10367000E35BFF4F608171818281938120E03FEFA6
:103680004FE757E40E94C50318160CF043C0FE0133
:10369000EF5AFF4F608171818281938120E030E099
:1036A00040E251E40E941F02DC01CB018E01055B68
:1036B0001F4FBC01CD010E944900DC01CB01F80184
:1036C000918380831FC0FE01E75BFF4F88EC90E091
:1036D00091838083FE01E75BFF4F80819181019799
:1036E000F1F7FE01E75BFF4F91838083DE01A55B6D
:1036F000BF4FFE01E55BFF4F8081918101971196DD
:103700009C938E93FE01E55BFF4F80819181009732
:10371000D1F627C08E01055B1F4FFE01E35BFF4F13
:1037200060817181828193810E944900DC01CB011B
:10373000F80191838083DE01A95BBF4FFE01E55B49
:10374000FF4F808191818D939C93FE01E95BFF4F38
:10375000808191810197F1F7FE01E95BFF4F918331
:103760008083FE01ED59FF4F8081882F90E08071AA
:10377000907095958795959587959595879595954D
:103780008795982F82E065E0492F0E942B17FE0154
:10379000ED59FF4F8081882F90E080729070959551
:1037A0008795959587959595879595958795959501
:1037B0008795982F82E064E0492F0E942B17FE0125
:1037C000ED59FF4F8081882F90E080749070082E13
:1037D000892F000C881F990B000C881F991F982FA8
:1037E00082E063E0492F0E942B17FE01ED59FF4F45
:1037F0008081982F991F9927991F82E062E0492FB5
:103800000E942B17FE01ED5BFF4F80E090E0A0E8E7
:10381000BFE380839183A283B3838E01015C1F4F3A
:10382000FE01ED5BFF4F608171818281938120E019
:1038300030E04AEF54E40E941F02DC01CB01F801A2
:1038400080839183A283B383FE01FF96608171819F
:103850008281938120E030E040E85FE30E9425040C
:1038600088232CF481E090E09EAF8DAF46C0FE012E
:10387000FF96608171818281938120E03FEF4FE765
:1038800057E40E94C503181664F5FE01ED5BFF4F77
:10389000608171818281938120E030E040E251E4D7
:1038A0000E941F02DC01CB01BC01CD010E94490036
:1038B000DC01CB019EAF8DAF0FC088EC90E09CAFD8
:1038C0008BAF8BAD9CAD0197F1F79CAF8BAF8DADFE
:1038D0009EAD01979EAF8DAF8DAD9EAD009769F700
:1038E00016C0FE01FF9660817181828193810E94E2
:1038F0004900DC01CB019EAF8DAF8DAD9EAD9AAF7F
:1039000089AF89AD9AAD0197F1F79AAF89AF82E09F
:1039100066E040E00E942B1780E090E0A0E8BFE363
:103920008DAB9EABAFABB8AF6DA97EA98FA998AD9B
:1039300020E030E04AEF54E40E941F02DC01CB019A
:1039400089AB9AABABABBCAB69A97AA98BA99CA993
:1039500020E030E040E85FE30E94250488232CF457
:1039600081E090E098AB8FA73FC069A97AA98BA9A5
:103970009CA920E03FEF4FE757E40E94C5031816CB
:103980004CF56DA97EA98FA998AD20E030E040E20A
:1039900051E40E941F02DC01CB01BC01CD010E9459
:1039A0004900DC01CB0198AB8FA70FC088EC90E0F9
:1039B0009EA78DA78DA59EA50197F1F79EA78DA720
:1039C0008FA598A9019798AB8FA78FA598A9009765
:1039D00069F714C069A97AA98BA99CA90E9449001A
:1039E000DC01CB0198AB8FA78FA598A99CA78BA7CB
:1039F0008BA59CA50197F1F79CA78BA782E066E0B9
:103A000041E00E942B1780E090E0A0E8BFE38FA385
:103A100098A7A9A7BAA76FA178A589A59AA520E01C
:103A200030E04AEF54E40E941F02DC01CB018BA37B
:103A30009CA3ADA3BEA36BA17CA18DA19EA120E000
:103A400030E040E85FE30E94250488232CF481E005
:103A500090E09AA389A33FC06BA17CA18DA19EA1F8
:103A600020E03FEF4FE757E40E94C50318164CF5DE
:103A70006FA178A589A59AA520E030E040E251E445
:103A80000E941F02DC01CB01BC01CD010E94490054
:103A9000DC01CB019AA389A30FC088EC90E098A326
:103AA0008F8F8F8D98A10197F1F798A38F8F89A1A0
:103AB0009AA101979AA389A389A19AA1009769F76E
:103AC00014C06BA17CA18DA19EA10E944900DC01C4
:103AD000CB019AA389A389A19AA19E8F8D8F8D8DE9
:103AE0009E8D0197F1F79E8F8D8FFE01ED59FF4F4F
:103AF0008081982F917082E065E0492F0E942B17FA
:103B0000FE01ED59FF4F8081882F90E08270907008
:103B100095958795982F82E064E0492F0E942B1796
:103B2000FE01ED59FF4F8081882F90E084709070E6
:103B30009595879595958795982F82E063E0492F15
:103B40000E942B17FE01ED59FF4F8081882F90E0D6
:103B5000887090709595879595958795959587959B
:103B6000982F82E062E0492F0E942B1780E090E0BE
:103B7000A0E8BFE3898F9A8FAB8FBC8F698D7A8D58
:103B80008B8D9C8D20E030E04AEF54E40E941F02B0
:103B9000DC01CB018D8B9E8BAF8BB88F6D897E89BD
:103BA0008F89988D20E030E040E85FE30E94250493
:103BB00088232CF481E090E09C8B8B8B3FC06D8937
:103BC0007E898F89988D20E03FEF4FE757E40E9470
:103BD000C50318164CF5698D7A8D8B8D9C8D20E070
:103BE00030E040E251E40E941F02DC01CB01BC0145
:103BF000CD010E944900DC01CB019C8B8B8B0FC057
:103C000088EC90E09A8B898B89899A890197F1F7E2
:103C10009A8B898B8B899C8901979C8B8B8B8B8949
:103C20009C89009769F714C06D897E898F89988D6A
:103C30000E944900DC01CB019C8B8B8B8B899C897A
:103C4000988B8F878F8598890197F1F7988B8F874D
:103C500082E066E040E00E942B1780E090E0A0E860
:103C6000BFE38B879C87AD87BE876B857C858D8501
:103C70009E8520E030E04AEF54E40E941F02DC0100
:103C8000CB018F839887A987BA876F8178858985CB
:103C90009A8520E030E040E85FE30E942504882315
:103CA0002CF481E090E09E838D833FC06F81788506
:103CB00089859A8520E03FEF4FE757E40E94C503CE
:103CC00018164CF56B857C858D859E8520E030E04F
:103CD00040E251E40E941F02DC01CB01BC01CD0196
:103CE0000E944900DC01CB019E838D830FC088ECCC
:103CF00090E09C838B838B819C810197F1F79C835F
:103D00008B838D819E8101979E838D838D819E8182
:103D1000009769F714C06F81788589859A850E941C
:103D20004900DC01CB019E838D838D819E819A8326
:103D3000898389819A810197F1F79A838983CD5983
:103D4000DF4F0FB6F894DEBF0FBECDBFCF91DF912E
:103D50001F910F9108950F931F93DF93CF93CDB7CA
:103D6000DEB7C356D0400FB6F894DEBF0FBECDBF4E
:103D7000FE01ED59FF4F808382E067E041E00E9441
:103D80002B17FE01E15AFF4F80E090E0A0E8BFE36F
:103D900080839183A283B3838E01055A1F4FFE0156
:103DA000E15AFF4F608171818281938120E030E090
:103DB0004AEF54E40E941F02DC01CB01F80180832A
:103DC0009183A283B383FE01E55AFF4F6081718125
:103DD0008281938120E030E040E85FE30E94250487
:103DE000882344F4FE01E75AFF4F81E090E091837D
:103DF000808364C0FE01E55AFF4F6081718182813A
:103E0000938120E03FEF4FE757E40E94C503181667
:103E10000CF043C0FE01E15AFF4F60817181828145
:103E2000938120E030E040E251E40E941F02DC0177
:103E3000CB018E01075A1F4FBC01CD010E944900E2
:103E4000DC01CB01F801918380831FC0FE01E95A98
:103E5000FF4F88EC90E091838083FE01E95AFF4F89
:103E6000808191810197F1F7FE01E95AFF4F91831B
:103E70008083DE01A75ABF4FFE01E75AFF4F8081C2
:103E80009181019711969C938E93FE01E75AFF4F03
:103E9000808191810097D1F627C08E01075A1F4F6C
:103EA000FE01E55AFF4F60817181828193810E94FA
:103EB0004900DC01CB01F80191838083DE01AB5A1C
:103EC000BF4FFE01E75AFF4F808191818D939C93F4
:103ED000FE01EB5AFF4F808191810197F1F7FE01BE
:103EE000EB5AFF4F9183808382E066E041E00E94BD
:103EF0002B17FE01EF5AFF4F80E090E0A0E8BFE3F0
:103F000080839183A283B3838E01035B1F4FFE01E5
:103F1000EF5AFF4F608171818281938120E030E010
:103F20004AEF54E40E941F02DC01CB01F8018083B8
:103F30009183A283B383FE01E35BFF4F60817181B4
:103F40008281938120E030E040E85FE30E94250415
:103F5000882344F4FE01E55BFF4F81E090E091830C
:103F6000808364C0FE01E35BFF4F608171818281C9
:103F7000938120E03FEF4FE757E40E94C5031816F6
:103F80000CF043C0FE01EF5AFF4F608171818281C6
:103F9000938120E030E040E251E40E941F02DC0106
:103FA000CB018E01055B1F4FBC01CD010E94490072
:103FB000DC01CB01F801918380831FC0FE01E75B28
:103FC000FF4F88EC90E091838083FE01E75BFF4F19
:103FD000808191810197F1F7FE01E75BFF4F9183AB
:103FE0008083DE01A55BBF4FFE01E55BFF4F808153
:103FF0009181019711969C938E93FE01E55BFF4F93
:10400000808191810097D1F627C08E01055B1F4FFB
:10401000FE01E35BFF4F60817181828193810E9489
:104020004900DC01CB01F80191838083DE01A95BAB
:10403000BF4FFE01E55BFF4F808191818D939C9383
:10404000FE01E95BFF4F808191810197F1F7FE014D
:10405000E95BFF4F91838083FE01ED59FF4F808123
:10406000882F90E0807190709595879595958795AC
:104070009595879595958795982F82E065E0492FCE
:104080000E942B17FE01ED59FF4F8081882F90E091
:10409000807290709595879595958795959587955C
:1040A0009595879595958795982F82E064E0492F9F
:1040B0000E942B17FE01ED59FF4F8081882F90E061
:1040C00080749070082E892F000C881F990B000CAB
:1040D000881F991F982F82E063E0492F0E942B17B9
:1040E000FE01ED59FF4F8081982F991F9927991F45
:1040F00082E062E0492F0E942B17FE01ED5BFF4F2B
:1041000080E090E0A0E8BFE380839183A283B38343
:104110008E01015C1F4FFE01ED5BFF4F60817181DD
:104120008281938120E030E04AEF54E40E941F0234
:10413000DC01CB01F80180839183A283B383FE016C
:10414000FF96608171818281938120E030E040E8B8
:104150005FE30E94250488232CF481E090E09EAF69
:104160008DAF46C0FE01FF9660817181828193818F
:1041700020E03FEF4FE757E40E94C503181664F5AF
:10418000FE01ED5BFF4F608171818281938120E0B0
:1041900030E040E251E40E941F02DC01CB01BC018F
:1041A000CD010E944900DC01CB019EAF8DAF0FC055
:1041B00088EC90E09CAF8BAF8BAD9CAD0197F1F795
:1041C0009CAF8BAF8DAD9EAD01979EAF8DAF8DAD8A
:1041D0009EAD009769F716C0FE01FF966081718160
:1041E000828193810E944900DC01CB019EAF8DAF9B
:1041F0008DAD9EAD9AAF89AF89AD9AAD0197F1F7BC
:104200009AAF89AF82E066E040E00E942B1780E021
:1042100090E0A0E8BFE38DAB9EABAFABB8AF6DA9AC
:104220007EA98FA998AD20E030E04AEF54E40E94C7
:104230001F02DC01CB0189AB9AABABABBCAB69A96C
:104240007AA98BA99CA920E030E040E85FE30E94B6
:10425000250488232CF481E090E098AB8FA73FC021
:1042600069A97AA98BA99CA920E03FEF4FE757E401
:104270000E94C50318164CF56DA97EA98FA998ADAB
:1042800020E030E040E251E40E941F02DC01CB015B
:10429000BC01CD010E944900DC01CB0198AB8FA786
:1042A0000FC088EC90E09EA78DA78DA59EA50197D5
:1042B000F1F79EA78DA78FA598A9019798AB8FA717
:1042C0008FA598A9009769F714C069A97AA98BA945
:1042D0009CA90E944900DC01CB0198AB8FA78FA558
:1042E00098A99CA78BA78BA59CA50197F1F79CA7E4
:1042F0008BA782E066E041E00E942B1780E090E00F
:10430000A0E8BFE38FA398A7A9A7BAA76FA178A534
:1043100089A59AA520E030E04AEF54E40E941F02EC
:10432000DC01CB018BA39CA3ADA3BEA36BA17CA19D
:104330008DA19EA120E030E040E85FE30E942504CB
:1043400088232CF481E090E09AA389A33FC06BA15D
:104350007CA18DA19EA120E03FEF4FE757E40E9492
:10436000C50318164CF56FA178A589A59AA520E07C
:1043700030E040E251E40E941F02DC01CB01BC01AD
:10438000CD010E944900DC01CB019AA389A30FC093
:1043900088EC90E098A38F8F8F8D98A10197F1F70B
:1043A00098A38F8F89A19AA101979AA389A389A124
:1043B0009AA1009769F714C06BA17CA18DA19EA161
:1043C0000E944900DC01CB019AA389A389A19AA18B
:1043D0009E8F8D8F8D8D9E8D0197F1F79E8F8D8F86
:1043E000FE01ED59FF4F8081982F917082E065E0CA
:1043F000492F0E942B17FE01ED59FF4F8081882F16
:1044000090E08270907095958795982F82E064E097
:10441000492F0E942B17FE01ED59FF4F8081882FF5
:1044200090E0847090709595879595958795982FD5
:1044300082E063E0492F0E942B17FE01ED59FF4FE8
:104440008081882F90E088709070959587959595DC
:10445000879595958795982F82E062E0492F0E9475
:104460002B1780E090E0A0E8BFE3898F9A8FAB8F95
:10447000BC8F698D7A8D8B8D9C8D20E030E04AEF6A
:1044800054E40E941F02DC01CB018D8B9E8BAF8B0D
:10449000B88F6D897E898F89988D20E030E040E863
:1044A0005FE30E94250488232CF481E090E09C8B3C
:1044B0008B8B3FC06D897E898F89988D20E03FEF7F
:1044C0004FE757E40E94C50318164CF5698D7A8DA5
:1044D0008B8D9C8D20E030E040E251E40E941F0271
:1044E000DC01CB01BC01CD010E944900DC01CB0104
:1044F0009C8B8B8B0FC088EC90E09A8B898B898981
:104500009A890197F1F79A8B898B8B899C890197FE
:104510009C8B8B8B8B899C89009769F714C06D8964
:104520007E898F89988D0E944900DC01CB019C8B8C
:104530008B8B8B899C89988B8F878F859889019726
:10454000F1F7988B8F8782E066E040E00E942B179E
:1045500080E090E0A0E8BFE38B879C87AD87BE87B3
:104560006B857C858D859E8520E030E04AEF54E4A4
:104570000E941F02DC01CB018F839887A987BA872D
:104580006F81788589859A8520E030E040E85FE397
:104590000E94250488232CF481E090E09E838D8383
:1045A0003FC06F81788589859A8520E03FEF4FE78E
:1045B00057E40E94C50318164CF56B857C858D85E4
:1045C0009E8520E030E040E251E40E941F02DC01C1
:1045D000CB01BC01CD010E944900DC01CB019E83CF
:1045E0008D830FC088EC90E09C838B838B819C81B2
:1045F0000197F1F79C838B838D819E8101979E8328
:104600008D838D819E81009769F714C06F817885B5
:1046100089859A850E944900DC01CB019E838D83A8
:104620008D819E819A83898389819A810197F1F78F
:104630009A838983CD59DF4F0FB6F894DEBF0FBE42
:10464000CDBFCF91DF911F910F910895DF93CF934D
:1046500000D00F92CDB7DEB79B838A8319820EC03C
:104660008981282F30E08A819B81FC01E20FF31FB2
:1046700080810E94AB1E89818F5F89838981282F69
:1046800030E08A819B81FC01E20FF31F8081882347
:1046900039F70F900F900F90CF91DF910895DF932E
:1046A000CF9300D000D00F92CDB7DEB78A836B8353
:1046B0008A81282F30E03D832C838C819D8181303D
:1046C0009105C1F02C813D81223031052CF48C8183
:1046D0009D81009761F019C02C813D812230310508
:1046E00069F08C819D818330910561F00EC08B81D2
:1046F00089830BC08B81805C898307C08B81805F3D
:10470000898303C08B81805B8983898180680E9453
:10471000301A0F900F900F900F900F90CF91DF9164
:104720000895DF93CF9300D000D0CDB7DEB7898353
:104730006A835C834B8389816A810E944F238B81CA
:104740009C810E9426230F900F900F900F90CF9185
:10475000DF910895DF93CF93CDB7DEB781E00E945C
:10476000301ACF91DF910895DF93CF93CDB7DEB7A5
:1047700062970FB6F894DEBF0FBECDBF9A8B898BC0
:1047800089899A899E012F5F3F4FB9014AE050E025
:104790000E943B26CE0101960E94262362960FB608
:1047A000F894DEBF0FBECDBFCF91DF910895DF93A8
:1047B000CF93CDB7DEB780E062E041E00E944016C3
:1047C00080E063E041E00E94401680E064E041E068
:1047D0000E94401680E062E040E00E942B1780E0DB
:1047E00063E040E00E942B1780E064E040E00E941C
:1047F0002B17CF91DF910895DF93CF9300D00F92C5
:10480000CDB7DEB789838981282F30E03B832A83A7
:104810008A819B818130910579F02A813B81223008
:10482000310581F08A819B81009789F480E062E004
:1048300041E00E942B170BC080E063E041E00E9442
:104840002B1705C080E064E041E00E942B170F9019
:104850000F900F90CF91DF910895DF93CF9300D009
:104860000F92CDB7DEB789838981282F30E03B8353
:104870002A838A819B818130910579F02A813B814D
:104880002230310581F08A819B81009789F480E094
:1048900062E040E00E942B170BC080E063E040E044
:1048A0000E942B1705C080E064E040E00E942B17B7
:1048B0000F900F900F90CF91DF910895DF93CF93DA
:1048C000CDB7DEB780E062E040E00E942B1780E0C9
:1048D00063E040E00E942B1780E064E040E00E942B
:1048E0002B17CF91DF910895DF93CF9300D000D0A5
:1048F000CDB7DEB71C821B821A82198280E00E942B
:10490000DD159C838B838B819C81AA2797FDA095C5
:10491000BA2FBC01CD010E945504DC01CB01BC01C2
:10492000CD0120E030EC4FE754E40E941903DC0194
:10493000CB01BC01CD0120E030E048EC52E40E9404
:104940001F02DC01CB01BC01CD010E94B304DC01DC
:10495000CB019A83898389819A810F900F900F9060
:104960000F90CF91DF9108951F920F920FB60F9283
:1049700011242F933F934F935F936F937F938F9364
:104980009F93AF93BF93EF93FF93DF93CF93CDB7F5
:10499000DEB78091720290917302009729F0E09146
:1049A0007202F09173020995CF91DF91FF91EF911F
:1049B000BF91AF919F918F917F916F915F914F9137
:1049C0003F912F910F900FBE0F901F9018951F923F
:1049D0000F920FB60F9211242F933F934F935F9333
:1049E0006F937F938F939F93AF93BF93EF93FF93B7
:1049F000DF93CF93CDB7DEB78091720290917302AF
:104A0000009729F0E0917202F09173020995CF911D
:104A1000DF91FF91EF91BF91AF919F918F917F9126
:104A20006F915F914F913F912F910F900FBE0F901B
:104A30001F901895DF93CF9300D000D0CDB7DEB78D
:104A40009A838983E981FA818781282F30E03C832A
:104A50002B838B819C818130910519F12B813C81C5
:104A60002230310509F44BC08B819C81009709F0FD
:104A700075C0ACE4B0E0E981FA8180819181119642
:104A80009C938E93E9E5F0E084E08083EFE4F0E02E
:104A90008CE08083AEE4B0E0E981FA8186818C937A
:104AA0005DC0EFE4F0E088E08083EEE4F0E088E0D1
:104AB0008083AEE4B0E0EEE4F0E08081982F987F50
:104AC000E981FA818681892B8C93ACE4B0E0E9819D
:104AD000FA818081918111969C938E93AAE4B0E033
:104AE000E981FA818281938111969C938E93A9E545
:104AF000B0E0E9E5F0E0808180618C932FC083E035
:104B000065E041E00E944016ECE4F0E01182108282
:104B1000A6E4B0E0E981FA818481958111969C93A5
:104B20008E93AAE4B0E0E981FA81828193811196A3
:104B30009C938E93EFE4F0E082E88083EEE4F0E073
:104B400088E18083AEE4B0E0EEE4F0E08081982F6D
:104B5000987FE981FA818681892B8C930F900F9041
:104B60000F900F90CF91DF910895DF93CF93CDB742
:104B7000DEB7EFE4F0E01082EEE4F0E01082ECE467
:104B8000F0E011821082E9E5F0E01082CF91DF9130
:104B90000895DF93CF9300D0CDB7DEB79A83898392
:104BA00089819A8190937302809372020F900F9083
:104BB000CF91DF910895DF93CF93CDB7DEB783E038
:104BC00067E041E00E94401683E067E040E00E9419
:104BD0002B17CF91DF910895DF93CF93CDB7DEB739
:104BE00083E067E041E00E942B17CF91DF910895A9
:104BF000DF93CF93CDB7DEB783E067E040E00E945C
:104C00002B17CF91DF9108952F923F924F925F9291
:104C10006F927F928F929F92AF92BF92CF92DF92CC
:104C2000EF92FF920F931F93CF93DF93CDB7DEB731
:104C3000CA1BDB0B0FB6F894DEBF0FBECDBF0994C5
:104C40002A88398848885F846E847D848C849B841C
:104C5000AA84B984C884DF80EE80FD800C811B812A
:104C6000AA81B981CE0FD11D0FB6F894DEBF0FBE59
:104C7000CDBFED010895FB019F01E8944230C4F0DF
:104C80004532B4F44A3029F497FB1EF4909581958F
:104C90009F4F642F77270E940D29805D8A330CF087
:104CA000895D8193CB010097A1F716F45DE25193E2
:104CB0001082C9010C947328AEE0B0E0E2E6F6E29F
:104CC0000C9412260D891E8986E08C831A83098331
:104CD0008FEF9FE79E838D839E01275E3F4FCE011E
:104CE00001966F89788DA9010E9480262F813885D1
:104CF000020F131FF80110822E96E4E00C942E266A
:104D0000ABE0B0E0E6E8F6E20C9404263C012B01AF
:104D10005A01FC0117821682838181FD03C06FEF67
:104D20007FEFC6C19AE0892E1E010894211C311C18
:104D3000F3012381F20123FD859123FF81912F014E
:104D4000882309F4B2C1853239F423FD859123FF0C
:104D500081912F01853229F490E0B3010E948328CC
:104D6000E7CF982FFF24EE249924FFE1FF15D0F020
:104D70009B3269F09C3228F4903259F0933291F4CE
:104D80000EC09D3249F0903369F441E024C052E0F6
:104D9000F52A84E0F82A28C098E0F92A25C0E0E145
:104DA000FE2A22C0F7FC29C0892F80538A3070F474
:104DB000F6FE05C0989C902C1124980E15C0E89C16
:104DC000E02C1124E80EF0E2FF2A0EC09E3229F4F6
:104DD000F6FC6BC140E4F42A07C09C3619F450E895
:104DE000F52A02C0983649F4F20123FD959123FF7C
:104DF00091912F01992309F0B8CF892F85548330E1
:104E000018F08052833038F444E050E0A40EB51E10
:104E10005FE359830FC0933631F0933779F09335C0
:104E200009F056C020C0F5018081898342E050E03E
:104E3000A40EB51E610101E010E012C0F501C080B2
:104E4000D180F6FC03C06FEF7FEF02C0692D70E0E8
:104E500042E050E0A40EB51EC6010E9468288C01F5
:104E60005FE7F52214C0F501C080D180F6FC03C0D5
:104E70006FEF7FEF02C0692D70E042E050E0A40EBA
:104E8000B51EC6010E945D288C0150E8F52AF3FE8C
:104E900007C01AC080E290E0B3010E948328EA9420
:104EA0008E2D90E008171907A8F30EC0F601F7FC45
:104EB0008591F7FE81916F0190E0B3010E948328F4
:104EC000E110EA94015010400115110579F7EAC08C
:104ED000943611F0993669F5F7FE08C0F501208186
:104EE00031814281538184E090E00AC0F5018081E4
:104EF00091819C01442737FD4095542F82E090E03A
:104F0000A80EB91E9FE6F92257FF09C0509540959B
:104F1000309521953F4F4F4F5F4FE0E8FE2ACA0181
:104F2000B901A1012AE030E00E94AF28D82ED218A2
:104F300040C0953729F41F2D1F7E2AE030E01DC0A8
:104F40001F2D197F9F3661F0903720F4983509F0B6
:104F5000ACC00FC0903739F0983709F0A6C004C034
:104F600028E030E00AC0106114FD146020E130E058
:104F700004C014FD166020E132E017FF08C0F501FF
:104F8000608171818281938144E050E008C0F50125
:104F900080819181BC0180E090E042E050E0A40E6D
:104FA000B51EA1010E94AF28D82ED2188FE7F82E87
:104FB000F122F6FE0BC05EEFF522D91438F4F4FEB0
:104FC00007C0F2FC05C08FEEF82202C01D2D01C003
:104FD000192DF4FE0DC0FE01ED0DF11D8081803311
:104FE00019F499EEF92208C01F5FF2FE05C003C054
:104FF0008F2D867809F01F5F0F2DF3FC14C0F0FE93
:105000000FC01E1510F09D2C0BC09D2C9E0C911AEC
:105010001E2D06C080E290E0B3010E9483281F5F2E
:105020001E15C0F304C01E1510F4E11A01C0EE24D1
:1050300004FF0FC080E390E0B3010E94832802FFC9
:105040001DC001FD03C088E790E00EC088E590E038
:105050000BC0802F867891F001FF02C08BE201C067
:1050600080E2F7FC8DE290E0B3010E94832806C045
:1050700080E390E0B3010E9483289A94D914C0F38E
:10508000DA94F101ED0DF11D808190E0B3010E94F1
:105090008328DD20A9F706C080E290E0B3010E94DA
:1050A0008328EA94EE20C1F743CEF301668177812D
:1050B000CB012B96E2E10C942026FC010590615077
:1050C00070400110D8F7809590958E0F9F1F08951E
:1050D000FC016150704001900110D8F780959095C7
:1050E0008E0F9F1F0895DC01FC01672F71917723BC
:1050F000E1F7329704C07C916D9370836291AE1793
:10510000BF07C8F308950F931F93CF93DF938C01CC
:10511000EB018B8181FF1BC082FF0DC02E813F817F
:105120008C819D812817390764F4E881F981019306
:10513000F983E88306C0E885F985802F0995892BD6
:1051400031F48E819F8101969F838E8302C00FEF81
:105150001FEFC801DF91CF911F910F910895FA01C0
:10516000AA27283051F1203181F1E8946F936E7FA6
:105170006E5F7F4F8F4F9F4FAF4FB1E03ED0B4E097
:105180003CD0670F781F891F9A1FA11D680F791FD8
:105190008A1F911DA11D6A0F711D811D911DA11DE9
:1051A00020D009F468943F912AE0269F11243019F9
:1051B000305D3193DEF6CF010895462F4770405D94
:1051C0004193B3E00FD0C9F7F6CF462F4F70405D43
:1051D0004A3318F0495D31FD4052419302D0A9F79E
:1051E000EACFB4E0A6959795879577956795BA9598
:1051F000C9F700976105710508959B01AC010A2E5E
:1052000006945795479537952795BA95C9F7620F34
:10521000731F841F951FA01D0895AA1BBB1B51E17E
:1052200007C0AA1FBB1FA617B70710F0A61BB70B16
:10523000881F991F5A95A9F780959095BC01CD01BB
:065240000895F894FFCF71
:1052460053746174653A20536166650053746174E2
:10525600653A205761726E696E67005374617465B2
:105266003A2044616E6765720030536166650030AE
:105276005761726E696E67003044616E67657200D1
:105286002564002A31003A002A3200446F6F7220EA
:105296004F70656E656400446F6F7220436C6F7368
:1052A60065640057617465722050756D70204163A6
:1052B600746976617465640057617465722050750F
:1052C6006D7020446541637469766174656400207D
:1052D600004761733A0030300030002500000000BE
:1052E600000000000000010202030303030404049B
:1052F600040404040405050505050505050505055D
:10530600050505050506060606060606060606063C
:105316000606060606060606060606060606060627
:10532600060606060607070707070707070707070C
:1053360007070707070707070707070707070707F7
:1053460007070707070707070707070707070707E7
:1053560007070707070707070707070707070707D7
:1053660007070707070808080808080808080808BC
:1053760008080808080808080808080808080808A7
:105386000808080808080808080808080808080897
:105396000808080808080808080808080808080887
:1053A6000808080808080808080808080808080877
:1053B6000808080808080808080808080808080867
:1053C6000808080808080808080808080808080857
:1053D6000808080808080808080808080808080847
:1053E6000808080808050000841E000005010000E2
:1053F600FA00C309030200007C00C3090302670028
:105406003300190010000C000800CF0067003300BD
:10541600220019001000A001CF00670044003300ED
:105426002200CF0067003300220019001000A001FF
:10543600CF0067004400330022004003A001CF00E4
:065446008A00670044002B
:00000001FF
